:1000000085C00000C2C3000083C3000044C30000D9
:100010009BC0000099C0000097C0000095C0000080
:1000200093C000003DC400008FC0000012C4000057
:100030008BC0000089C0000087C0000085C00000A0
:1000400040C3000081C000007FC000007DC00000F0
:100050007BC0000079C0000077C0000075C00000C0
:1000600073C0000071C000006FC000006DC00000D0
:10007000C9C3000069C0000067C0000065C000007F
:1000800063C0000061C000005FC0000014061706D6
:100090001B061F06230627062B062F069C06A10615
:1000A000A706AD06B306B906C006C706CE06D40637
:1000B000DB06E206E906FC06EF06F6064E075107E8
:1000C000550759075D07610765076907F907FC07C9
:1000D0000008040808080C081008140863086C08D5
:1000E000760880088A0894089F08AA08B508BF08FF
:1000F000CA08D508E008FF08EA08F50859095E09AA
:1001000064096A09700976097C09820911241FBEF5
:10011000CFEFD0E1DEBFCDBF11E0A0E0B1E0E8ED70
:10012000F8E100E00BBF02C007900D92A630B107C6
:10013000D9F721E0A6E0B1E001C01D92AA36B207CE
:10014000E1F7D5D30C946A0C5BCFFC01608311827C
:1001500091B321E030E0A90102C0440F551F6A9518
:10016000E2F7842F8095892381BB82B3008002C08F
:10017000220F331F0A94E2F7282B22BB0895FC01BB
:100180008081813069F018F0823099F01AC089B707
:10019000816089BFEAE6F0E080818260808311C0DF
:1001A00089B7826089BFEAE6F0E080818860808359
:1001B00008C089B7846089BFEAE6F0E08081806288
:1001C000808378940895FC018FEF8ABB12821BBA5A
:1001D0008FE3838386E084838BE585838FE4868346
:1001E00086E687838DE680878DE7818787E0828733
:1001F0008FE7838787E6848790E00CC0DF01A90F33
:10020000B11D21E0092E01C0220F0A94EAF71D96C4
:100210002C939F5F963090F30895FC0162836BBB33
:100220000895FC01E60FF11D6585F7CF089560E4A0
:10023000F4CF08951BBA0895FC018FEF84BB15BA63
:1002400080936400109265001082118212821382E2
:10025000158214828FE3868386E087838BE580870F
:100260008FE4818786E682878DE683878DE78487A2
:1002700087E085878FE7868787E6878708952FEF52
:1002800020936400E5E6F0E02083408121E030E047
:10029000062E02C0220F331F0A94E2F72095242372
:1002A0002083FC01E60FF11D2081FC01E20FF11D0E
:1002B000868185BB08958FEF8093650008950F9325
:1002C0001F93CF938C01C0E00AC06C2FC801D7DF09
:1002D0008FE99FE00197F1F700C00000CF5FC430C5
:1002E000A0F3CF911F910F910895CF93DF93EC016D
:1002F000AB017D836C839B013695279536952795B9
:1003000036952795A5ECB0E20E945B0CFC01F295B6
:10031000E295EF70EF27FF70EF279F01ADECBCEC8B
:100320000E945B0C969587959695879596958795EF
:100330009C01220F331F880F991F880F991F880F68
:10034000991F820F931F9F01281B390B28839A0145
:100350003695279536952795ABE7B4E10E945B0C5F
:10036000FC01F695E7959F01ADECBCEC0E945B0C9F
:100370009695879596958795969587959C01220FDA
:10038000331F880F991F880F991F880F991F820F9D
:10039000931F9F01281B390B29839A010E945B0C34
:1003A000FC01F695E795F695E795F695E7959F019B
:1003B0000E945B0C9695879596958795969587955F
:1003C0009C01220F331F880F991F880F991F880FD8
:1003D000991F820F931F9F01281B390B2A83CF017E
:1003E000880F991FEE0FFF1FEE0FFF1FEE0FFF1F6D
:1003F000E80FF91F4E1B5F0B4B83CE0160DFDF91CF
:10040000CF91089581E080932E018BE191E090934C
:1004100019018093180110921A011092160110927E
:1004200015011092300110922F011092170141E036
:1004300050E061E682E092D202D68091180190915C
:100440001901C1DE8091180190911901F3CE089530
:10045000482F50E061E682E0FDC2089580932E01AE
:10046000089580912E010895882371F081E0809392
:100470002E0180E180931A01EBDF809118019091A9
:100480001901D5DEE0C5089580912E01813059F41F
:1004900080E180931A01DCDF8091180190911901AD
:1004A000C6DED1C50895823031F48AEA80931A01FC
:1004B000CFDFC5C50895843031F484ED80931A01EF
:1004C000C7DFBDC50895883029F48FEF80931A01E6
:1004D000BFDFB5C5089580912E01843059F0883072
:1004E00081F08230A1F420E330E03093300120939A
:1004F0002F010DC02CE130E03093300120932F010B
:1005000006C02CE030E03093300120932F01813081
:1005100031F1809115019091160101969093160189
:100520008093150120912F0130913001821793079C
:10053000D8F01092160110921501809117018530A4
:1005400018F01092170103C08F5F8093170160911C
:100550001701809118019091190163CE089580913F
:1005600018019091190163CE0895CF93DF93FBD2C8
:10057000C0914101D0914201AED3C81BD90BD09399
:100580004401C09343018091430190914401892B20
:1005900019F481E080934501DF91CF91089581E0C6
:1005A000809346011092450110924401109243013C
:1005B000109242011092410169D381E391E090933E
:1005C00048018093470138DE8091470190914801AE
:1005D00072CE0895CF93C82F6AD3C093460110926C
:1005E00045011092440110924301CF9108958091EA
:1005F00046010895809143019091440108958091AE
:1006000045010895811104C080914501882361F05E
:1006100081E0809346011092450149D380914701C2
:100620009091480148CE089580914601813041F46F
:100630008AE090E0909342018093410138D323C037
:1006400080914601823041F48AE090E0909342012B
:10065000809341010FD317C080914601843041F44B
:100660008CE390E0909342018093410103D30BC04F
:1006700080914601883039F488E592E090934201F8
:1006800080934101F7D2B6DFBC0180914701909180
:1006900048012BCE08951F920F920FB60F9211248E
:1006A0008F9380915001882319F01092500103C05C
:1006B00081E0809350018F910F900FBE0F901F909B
:1006C00018951F920F920FB60F9211240BB60F922E
:1006D0002F933F934F935F936F937F938F939F934A
:1006E000AF93BF93EF93FF9340DFFF91EF91BF91E3
:1006F000AF919F918F917F916F915F914F913F91BA
:100700002F910F900BBE0F900FBE0F901F9018955A
:100710001F920F920FB60F9211240BB60F922F93C8
:100720003F934F935F936F937F938F939F93AF9379
:10073000BF93EF93FF935BDF823061F018F4813059
:1007400031F010C0843049F0883051F00BC082E0A5
:1007500041DF08C084E03EDF05C088E03BDF02C027
:1007600081E038DFFF91EF91BF91AF919F918F9121
:100770007F916F915F914F913F912F910F900BBEA1
:100780000F900FBE0F901F9018951F920F920FB6EB
:100790000F9211240BB60F922F933F934F935F93B9
:1007A0006F937F938F939F93AF93BF93EF93FF9339
:1007B00058DE823061F018F4813031F010C084309E
:1007C00049F0883051F00BC082E048DE08C084E078
:1007D00045DE05C088E042DE02C081E03FDEFF91D9
:1007E000EF91BF91AF919F918F917F916F915F91A9
:1007F0004F913F912F910F900BBE0F900FBE0F9016
:100800001F9018951F920F920FB60F9211240BB6DE
:100810000F922F933F934F935F936F937F938F9399
:100820009F93AF93BF93EF93FF93E0D5FF91EF9129
:10083000BF91AF919F918F917F916F915F914F91F8
:100840003F912F910F900BBE0F900FBE0F901F90F6
:1008500018951F920F920FB60F9211240BB60F929C
:100860002F933F934F935F936F937F938F939F93B8
:10087000AF93BF93EF93FF93B9D6FF91EF91BF91E1
:10088000AF919F918F917F916F915F914F913F9128
:100890002F910F900BBE0F900FBE0F901F901895C9
:1008A0001F920F920FB60F9211240BB60F922F9337
:1008B0003F934F935F936F937F938F939F93AF93E8
:1008C000BF93EF93FF9307DEFF91EF91BF91AF913D
:1008D0009F918F917F916F915F914F913F912F9158
:1008E0000F900BBE0F900FBE0F901F90189581E0D8
:1008F0008093500160E0809104019091050125DC16
:1009000080910401909105013ADC61E0809102013F
:10091000909103011ADC80910201909103012FDC78
:1009200062E080910001909101010FDC8091000153
:100930009091010124DC33DE93D564DD8091500178
:1009400061DE80915001C3D5809150018DDD57DE6D
:100950008823A1F381E080935001F0CFCF93DF9300
:10096000EA01813059F038F0823009F43BC083301D
:1009700009F43BC06CC08AD176D169C0633431F1CF
:1009800028F4613459F06234A9F061C06236C1F0D4
:10099000633611F1613609F05AC006C085E0A0D176
:1009A000BE0181E4B5D253C085E09AD1BE0181E495
:1009B000AFD24DC086E094D1BE0182E4A9D247C037
:1009C00086E08ED1BE0182E4A3D241C087E088D107
:1009D000BE0183E49DD23BC087E082D1BE0183E4A7
:1009E00097D235C0C0D224D332C0633429F128F461
:1009F000613451F06234A1F02AC06236B9F0633636
:100A000009F1613621F506C083E031D3BE0181E4EE
:100A1000D5D41DC083E02BD3BE0181E4CFD417C051
:100A200084E025D3BE0182E4C9D411C084E01FD381
:100A3000BE0182E4C3D40BC085E019D3BE0183E4B8
:100A4000BDD405C085E013D3BE0183E4B7D4DF91E4
:100A5000CF910895813049F028F08230A1F18330A0
:100A6000A9F10895842F35C10895633411F128F454
:100A7000613459F0623499F008956236A9F0633612
:100A8000E9F0613609F04EC005C0642F752F81E48E
:100A900058C20895642F752F81E453C20895642FBE
:100AA000752F82E44EC20895642F752F82E449C2E7
:100AB0000895642F752F83E444C20895642F752F21
:100AC00083E43FC20895842FD0C20895633409F1AE
:100AD00028F4613451F0623491F008956236A1F047
:100AE0006336E1F06136F1F405C0642F752F81E4BF
:100AF00054C40895642F752F81E44FC40895642F62
:100B0000752F82E44AC40895642F752F82E445C48A
:100B10000895642F752F83E440C40895642F752FC2
:100B200083E43BC40895FC01862F642F80834183B6
:100B300042E350E013CF089526E1629FB0011124F3
:100B400068517C4FFC0173836283CB010895CF937E
:100B5000DF93EC016C83F0DFAC01698188817ADF7F
:100B6000DF91CF9108958091110190911201A09190
:100B70001301B0911401BC01CD016F5F7F4F8F4F06
:100B80009F4F609311017093120180931301909312
:100B9000140128EE33E040E050E062D6672B682B6A
:100BA000692B49F480910601909107010196909379
:100BB00007018093060187E082BF0895813049F0E4
:100BC00028F0823051F0833061F0089583B783BFFD
:100BD000089583B7806483BF089583B7886083BF17
:100BE000089583B7886483BF0895813049F028F061
:100BF000823051F0833061F0089583B783BF089548
:100C000083B7806183BF089583B7806283BF0895EF
:100C100083B7806383BF089590E08830910510F515
:100C2000FC01EA5BFF4F3EC683B783BF089583B7DD
:100C3000816083BF089583B7826083BF089583B7BF
:100C4000836083BF089583B7846083BF089583B7AB
:100C5000856083BF089583B7866083BF089583B797
:100C6000876083BF089583E0A9DF82E0BEDF84E070
:100C7000D3CF089587B7816087BF089580E09EDF56
:100C800080E0B3DF84E0C8DFF5CF08951092110152
:100C900010921201109213011092140187B3806117
:100CA00087BB88B38F7E88BBE9DF7894089587B7C8
:100CB0008E7F87BF109211011092120110921301C2
:100CC000109214011092070110920601089581BF3D
:100CD0000895FDCF08958091060190910701089530
:100CE00047B321E030E0B90102C0660F771F8A9553
:100CF000E2F7CB01462B47BB98B38095892388BB8D
:100D00008FEF9FEF90930A018093090178940895E3
:100D10009C0140E050E060E074E284EF90E0A0D5F8
:100D2000C9010197089590E08031910508F064C0F1
:100D3000FC01E25BFF4FB6C58EB58EBD8FB58FBD92
:100D400008958EB58EBD8FB581608FBD08958EB527
:100D50008EBD8FB582608FBD08958EB58EBD8FB567
:100D600083608FBD08958EB588608EBD8FB58FBDB1
:100D700008958EB588608EBD8FB581608FBD089552
:100D80008EB588608EBD8FB582608FBD08958EB59B
:100D900088608EBD8FB583608FBD08958EB58061EC
:100DA0008EBD8FB58FBD08958EB580618EBD8FB518
:100DB00081608FBD08958EB580618EBD8FB58260D4
:100DC0008FBD08958EB580618EBD8FB583608FBD58
:100DD00008958EB588618EBD8FB58FBD08958EB58F
:100DE00088618EBD8FB582608FBD08958EB5886194
:100DF0008EBD8FB583608FBD0895813431F082340C
:100E000011F080E003C082E001C084E0613049F06D
:100E100028F06230A9F0633011F108958FB58FBDCD
:100E200008954FB590E0029621E030E0B90102C08C
:100E3000660F771F8A95E2F7CB01842B8FBD08954B
:100E40004FB590E0039621E030E0F90102C0EE0FCB
:100E5000FF1F8A95E2F7CF01842B8FBD08954FB510
:100E600090E0BC016D5F7F4F21E030E0F90102C0EE
:100E7000EE0FFF1F6A95E2F7029602C0220F331FA2
:100E80008A95E2F72E2B242B2FBD089590E0883011
:100E9000910510F5FC01E25AFF4F04C58EB58EBDD9
:100EA00008958EB581608EBD08958EB582608EBD29
:100EB00008958EB583608EBD08958EB584608EBD15
:100EC00008958EB585608EBD08958EB586608EBD01
:100ED00008958EB587608EBD089581B38F7E81BBE6
:100EE00082B38F7E82BB87B7806287BF08958234CA
:100EF00039F0833441F0813451F47BBD6ABD0895EB
:100F000079BD68BD08957093790060937800089565
:100F1000CF93DF93EB018FE006DF81E0B7DFCE01F7
:100F2000F7DE90930A018093090162E082E465DFB5
:100F30006091090170910A0181E4D9DFDF91CF91BD
:100F40000895D5CF08958EB580688EBD08958130FF
:100F500021F48EB580648EBD0895811103C08EB5D5
:100F60008F7B8EBD089510920B0110920C01109290
:100F70000D0110920E0187B3806887BB88B38F770D
:100F800088BB78940895813049F028F0823051F080
:100F9000833061F0089585B585BD089585B5806479
:100FA00085BD089585B5886085BD089585B588643B
:100FB00085BD0895813049F028F0823051F08330AA
:100FC00061F0089585B585BD089585B5806185BDBD
:100FD000089585B5806285BD089585B5806385BD1A
:100FE000089590E08830910510F5FC01EA59FF4F13
:100FF00059C485B585BD089585B5816085BD0895C1
:1010000085B5826085BD089585B5836085BD0895E9
:1010100085B5846085BD089585B5856085BD0895D5
:1010200085B5866085BD089585B5876085BD0895C1
:1010300083E0A9DF82E0BEDF84E0D3CF089587B7E5
:10104000806887BF089587B78F7787BF10920B019D
:1010500010920C0110920D0110920E0110921001CD
:1010600010920F01089583BD0895FDCF089542B1F8
:1010700021E030E0B90102C0660F771F8A95E2F7E0
:10108000CB01462B42B993B18095892383B97894DB
:101090000895880F991F880F991F880F991F9C0129
:1010A00040E050E060E074E284EF90E0D9D3C90101
:1010B0000197089590E08031910508F0A0C0FC01EF
:1010C000E259FF4FEFC3EAE8F0E080818083EBE86C
:1010D000F0E0808180830895EAE8F0E080818083F9
:1010E000EBE8F0E08081816080830895EAE8F0E039
:1010F00080818083EBE8F0E08081826080830895C6
:10110000EAE8F0E080818083EBE8F0E080818360B2
:1011100080830895EAE8F0E0808188608083EBE8CE
:10112000F0E0808180830895EAE8F0E080818860C3
:101130008083EBE8F0E08081816080830895EAE8B5
:10114000F0E0808188608083EBE8F0E0808182605D
:1011500080830895EAE8F0E0808188608083EBE88E
:10116000F0E08081836080830895EAE8F0E0808188
:1011700080618083EBE8F0E0808180830895EAE875
:10118000F0E0808180618083EBE8F0E08081816025
:1011900080830895EAE8F0E0808180618083EBE855
:1011A000F0E08081826080830895EAE8F0E0808149
:1011B00080618083EBE8F0E0808183608083089524
:1011C000EAE8F0E0808188618083EBE8F0E08081EC
:1011D00080830895EAE8F0E0808188618083EBE80D
:1011E000F0E08081826080830895EAE8F0E0808109
:1011F00088618083EBE8F0E08081836080830895DC
:10120000813431F0823411F080E003C082E001C00B
:1012100084E0613059F028F06230C9F0633041F168
:101220000895EBE8F0E0808180830895EBE8F0E03A
:10123000408190E0029621E030E0B90102C0660FE3
:10124000771F8A95E2F7CB01842B80830895EBE822
:10125000F0E0408190E0039621E030E0D90102C047
:10126000AA0FBB1F8A95E2F7CD01842B80830895D6
:10127000EBE8F0E0408190E0BC016D5F7F4F21E042
:1012800030E0D90102C0AA0FBB1F6A95E2F70296AF
:1012900002C0220F331F8A95E2F72A2B242B2083CA
:1012A000089590E08830910590F5FC01E258FF4FD9
:1012B000F9C2EAE8F0E0808180830895EAE8F0E08E
:1012C0008081816080830895EAE8F0E08081826017
:1012D00080830895EAE8F0E0808183608083089548
:1012E000EAE8F0E08081846080830895EAE8F0E035
:1012F0008081856080830895EAE8F0E080818660DF
:1013000080830895EAE8F0E0808187608083089513
:10131000823451F0833471F0813489F4EDE7F0E0E8
:101320008081806180830895EDE7F0E080818860AE
:1013300080830895EDE7F0E08081826080830895E6
:10134000823451F0833471F0813489F4EDE7F0E0B8
:1013500080818F7E80830895EDE7F0E08081877F34
:1013600080830895EDE7F0E080818D7F808308958C
:10137000823449F0833461F0813471F470938700D2
:1013800060938600089570938500609384000895AB
:101390007093830060938200089520910901309139
:1013A0000A016217730718F0B901E2CF0895E0CF80
:1013B0000895909381008093800008951F93CF93A8
:1013C000DF93182FEB018EE075DE62E0812F18DFCE
:1013D00082E067DFCE015DDEEC01EBDFD0930A0136
:1013E000C0930901DF91CF911F910895209162016F
:1013F00081E0820F809362018DEC289F812D112462
:10140000869586958695880F982F990F990F890F45
:10141000281325C080914901882361F080915101F2
:101420008F5F8093510180915101843B78F010923D
:1014300049010CC0809151018150809351018091EC
:101440005101811103C081E08093490160915101F4
:1014500080915201909153017ADB109262010895BC
:10146000109251011092620181E08093490183E65C
:1014700091E0909353018093520142E463E053DB87
:101480006AE5809152019091530161DB8AE491E019
:1014900090935B0180935A0141E463E044DB6AE589
:1014A00080915A0190915B0152DB83E431DF60E06F
:1014B00083E4A6DE80E0FEDD68EB7BE083E458DFBA
:1014C00018C0089544CB0895809151010895811169
:1014D0000DC083E41DDF3DD0069750F4F5DF682F83
:1014E00080915A0190915B01EDCF089583E428CF5C
:1014F000089587B3806487BB88B38F7B88BB81B333
:101500008F7E81BB1092590110925801109269018F
:101510001092680110925F0110925E0110926101B9
:101520001092600186E0DCDB8FE0FDDB83E0AEDC67
:1015300062E082E462DC64ED70E381E4D8DC62E0C6
:1015400070E082E4D4DCFFDC81E001DDC6DC78946D
:10155000089580914F01811110924F01809158019F
:10156000909159010895209168013091690180910D
:101570005E0190915F012817390778F480915E0130
:1015800090915F012091680130916901821B930B5A
:10159000909361018093600110C080915E019091F1
:1015A0005F012091680130916901821B930B8C527D
:1015B0009F4C9093610180936001609160017091F4
:1015C000610180E090E05BD02DEB37E346E856E325
:1015D000BCD020E030ED44E057E4B7D020E030E06C
:1015E00040E05FE3B2D01FD0CB0108950EB406FEF9
:1015F00009C086B597B5909369018093680180E032
:10160000A6CC089586B597B590935F0180935E014F
:1016100081E09DDC81E080934F01A5DF909359012B
:1016200080935801089570D088F09F5790F0B92F9B
:101630009927B751A0F0D1F0660F771F881F991F27
:101640001AF0BA95C9F712C0B13081F077D0B1E085
:10165000089574C0672F782F8827B85F39F0B93F95
:10166000CCF3869577956795B395D9F73EF4909529
:101670008095709561957F4F8F4F9F4F0895E894A7
:1016800009C097FB3EF490958095709561957F4FCA
:101690008F4F9F4F9923A9F0F92F96E9BB27939578
:1016A000F695879577956795B795F111F8CFFAF488
:1016B000BB0F11F460FF1BC06F5F7F4F8F4F9F4FB9
:1016C00016C0882311F096E911C0772321F09EE817
:1016D000872F762F05C0662371F096E8862F70E07D
:1016E00060E02AF09A95660F771F881FDAF7880F57
:1016F0009695879597F9089557FD9058440F551F73
:1017000059F05F3F71F04795880F97FB991F61F083
:101710009F3F79F087950895121613061406551FFA
:10172000F2CF4695F1DF08C0161617061806991F66
:10173000F1CF86957105610508940895E894BB275B
:1017400066277727CB0197F908950BD078C069D029
:1017500028F06ED018F0952309F05AC05FC011240C
:10176000EECFCADFA0F3959FD1F3950F50E0551F40
:10177000629FF001729FBB27F00DB11D639FAA27E6
:10178000F00DB11DAA1F649F6627B00DA11D661F35
:10179000829F2227B00DA11D621F739FB00DA11D56
:1017A000621F839FA00D611D221F749F3327A00D10
:1017B000611D231F849F600D211D822F762F6A2FAC
:1017C00011249F5750408AF0E1F088234AF0EE0F31
:1017D000FF1FBB1F661F771F881F91505040A9F73E
:1017E0009E3F510570F014C0AACF5F3FECF3983EC6
:1017F000DCF3869577956795B795F795E7959F5FA5
:10180000C1F7FE2B880F911D9695879597F908953E
:1018100097F99F6780E870E060E008959FEF80ECA3
:10182000089500240A941616170618060906089546
:1018300000240A9412161306140605060895092EAC
:101840000394000C11F4882352F0BB0F40F4BF2B1B
:1018500011F460FF04C06F5F7F4F8F4F9F4F08955B
:10186000A1E21A2EAA1BBB1BFD010DC0AA1FBB1FA4
:10187000EE1FFF1FA217B307E407F50720F0A21B16
:10188000B30BE40BF50B661F771F881F991F1A9483
:1018900069F760957095809590959B01AC01BD01AD
:1018A000CF010895EE0FFF1F0024001C0BBE079010
:1018B000F691E02D0994A29FB001B39FC001A39FB0
:1018C000700D811D1124911DB29F700D811D112479
:0818D000911D0895F894FFCF6B
:0618D800560154015C0101
:00000001FF
